:020000040800F2
:10000000F0FF0010B19207085D000708A93202084E
:100010005193070851930708519307080000000007
:100020000000000000000000000000006100070860
:100030006500070800000000690007089DD6010858
:1000400051930708519307085193070851930708E4
:10005000519307085193070889B3000891B300082A
:1000600099B30008A1B30008A9B3000855B000086F
:1000700069B000087DB0000891B00008A5B0000884
:10008000B9B00008CDB00008519307085193070894
:10009000519307085193070851930708B1B300081B
:1000A00059CF0008B9CE000869CF0008A9CE0008D2
:1000B000E1CE0008F1CE000801CF000839A7000802
:1000C00075C2000841A7000879C2000851930708CB
:1000D00051930708D1CF0108D5D00108D9D1010823
:1000E000B9B30008519307085113070879CF0008E6
:1000F00031CF000889CF000821CF0008E1B0000807
:10010000519307085193070811CF0008519307082E
:10011000DDD20108E1D30108519307085193070884
:10012000F5B0000809B100081DB1000831B10008A0
:1001300045B10008519307085193070851930708E8
:100140005193070851930708519307086D0007085A
:1001500059B100086DB1000881B10008E5D401086B
:1001600049A700087DC2000851930708519307086A
:1001700051930708519307085193070851930708B3
:08018000519307085193070891
:10800000074BD0F8E4105B68D0F8F0205B1A9A4276
:10801000B8BFC0F8F030012380F81C310020704751
:10802000001000E0B74B00EB800270B503EBC20418
:1080300053F832205268B2F814C01CF0010F4FEA16
:1080400080016AD15FFA8CFE1EF0020F3DD0BFF3B3
:108050005F8F257F012D5FFA85FC00F0CC80148BAB
:10806000BFF35F8F0C1803EBC404257F022D00F0D3
:10807000E3800C1803EBC404257F032D06D1A47FF5
:1080800024B193F87940002C40F0E5809488A4B2A4
:1080900044F48064948093F978C001EB000E03EB04
:1080A000CE0E9EF81CE00EF1010EE6450CD1002428
:1080B00083F8794093F87A40002C40F0B680084469
:1080C00003EBC00300225A7670BD1EF0040F5BD193
:1080D0001EF0400E00F0C880158A93F978C0666AD9
:1080E000EDB206F80C505FFA8CFE267F0EF101040B
:1080F00064B2E51CAE4283F87840A44600F02A81C1
:108100000D1803EBC5052D7FAC42C6D10EF1020C54
:108110004FFA8CFC83F878C0BFE7B2F800C02CF4AB
:10812000006C4FEA0C4C4FEA1C4CA2F800C0B2F8AD
:1081300000C01FFA8CFC4CF4806CA2F800C0A57F34
:108140004FF0000C83F878C0002D46D093F879509A
:10815000002D3FD0012483F879400C1803EBC404B0
:10816000247F022C04D11488A4B244F40064148047
:108170000C1803EBC404A47E44F0010414820844E8
:1081800003EBC0031B7F70BDA57F4FF0010C83F88C
:108190007AC0002D6FD093F87950002D70D10C1853
:1081A00003EBC404647F002C00F0AE80148893F8C5
:1081B00078C0A4B244F400740CF1010C14804FFA9E
:1081C0008CF483F87840B2F800C01CF4807FFAD1B8
:1081D000A44662E7E47EFF2CBCD00C1803EBC40479
:1081E000A57E05F0FE051582E27EFF2AC7D0FF229C
:1081F00083F87820C3E7A47F002C3FF430AF93F8D6
:108200007940002C3FF42BAF148824F480642404BC
:10821000240C1480BFF35F8F148B148883F87AC00A
:10822000A4B244F40074148030E7948824F44074B9
:108230002404240C948042E7A47F002C3FF419AF5F
:1082400093F87940002C3FF414AF148824F4806430
:108250002404240C1480948824F480642404240CC2
:10826000948093F978C018E71FFA8CF52D0631D465
:1082700093F978C011E793F87940002C8FD095E7F7
:10828000257F022D15884AD925F480652D042D0CF3
:108290001580158A666A93F978C0EDB206F80C501D
:1082A000666A1488A4B244F4007414805FFA8CFCEB
:1082B000158A0CF1010464B2EDB2355595880CF1C4
:1082C000020CADB24FFA8CF445F4806583F8784027
:1082D000958078E793F978506E1C42D0266A765DD7
:1082E0001682247F05F1010C4FFA8CFC644583F85B
:1082F00078C07FF4D2AE948824F480642404240CE3
:108300009480CAE6F01E00201488A4B244F480745D
:108310001480012483F8794093F9784053E7ADB293
:1083200045F400751580158A666A93F978C0EDB238
:1083300006F80C505FFA8CFC666A158A0CF1010491
:1083400064B2EDB20CF1030C35554FFA8CF483F89E
:10835000784038E7958825F480652D042D0C9580AC
:10836000CEE6E57E1582A57F83F878E01DB9247FEF
:10837000002C7FF404AF948824F480642404240C3B
:108380009480FCE61B4B01681B4A03F5727C03E0FA
:1083900063452CD053F82C2F9142F9D170B593F846
:1083A00004E0427996450AD0634505D053F82C2F56
:1083B0009142F4D06345F9D14FF0FF3070BD9E4635
:1083C0008468DEF80C50A5424FF0000208D001325C
:1083D000032A0EF10C0EE7D0DEF80C50A542F6D1C0
:1083E000DEF81050C668B542F1D150B270BD4FF002
:1083F000FF30704714AE07080000014030B5EAB105
:108400008E464FEA014C034600F1C005002419686E
:108410009A6841EA0C0142EA0E029A60C3E900142C
:108420000C33AB42F3D1D0F8C030C0F8C44043EABB
:108430000E03C0F8C030C0F8C84030BD4FEA014E4E
:108440008C46E0E783691969B3F80CC00A6830B458
:108450009C6822F0010224680A60A28992B222EA92
:108460000C02A281027D04681F2A06D96568203AA1
:1084700008209040284245D0FEE72568082090401B
:108480002842F9D1202000FA02F2A260264A12788E
:10849000002A35D01A7E012A39D0D3F8F4200132CF
:1084A000C3F8F420EFF31181502282F31288586848
:1084B0005C6C026822EA04029C6C2243C9B202602E
:1084C00081F31188D3E90C401A6999681D6C096819
:1084D00014605061D3E90E40546090600024B3F8FA
:1084E000A800D5604C62C862106801242043106067
:1084F0001C7683F8F1408A899B8913439BB28B8158
:1085000030BC7047202000FA02F2E260BEE7002291
:1085100083F8F120D3F8F8000A68013022F0010254
:10852000C3F8F8000A60EBE70400001010B40C4C2C
:108530006368002B11DD002004F1080C0146DCF813
:10854000A03003F1C00259600C339342FBD1636841
:10855000013083420CF5807CF1DC5DF8044B704700
:1085600004000010F0B5494C04EB401C9CF8242496
:1085700002B9F0BD464B4FF08C0E0EFB003E93F857
:10858000DC6493F8DD249EF87E708CF80A749642C1
:108590004FF0000C4FEA40158EF87EC00ED002EB73
:1085A000420C03EBCC0C57009CF8E0C40CF1FF3EEE
:1085B000BEF1010F5CD9BCF1030F53D06019A0F8D4
:1085C0000814EFF31182902383F3128890F80A3491
:1085D000B0F8081443EA41030021D2B29BB280F8FC
:1085E0000A1482F311881A09217882EA13225A4068
:1085F000D9B1D0F82044D0F80C14D4F8A040D2431C
:108600001B019BB202F00F0201208840134304F1CA
:10861000C0015A0013F4004F93B202D162680243C2
:1086200062600C348C42F4D1F0BDD0F82014D0F844
:108630000C04D1F8A0401B0100F110019BB202F024
:108640000F0201208840134304F1C0015A0013F4C3
:10865000004F93B202D16268024362600C34A142BF
:10866000F4D1F0BD02F1010C0CF0030CB445A5D01F
:108670003A4403EBC202131893F8ED1400299DD07D
:108680006319012283F80A2498E700BF0400001050
:10869000F01E0020704700BF024B03EB401090F823
:1086A00025047047040000104368B0F8502010B44F
:1086B0001A83EFF31182502383F312884168446CCC
:1086C0000B6823EA0403C46C2343D2B20B6082F329
:1086D0001188D0E907418268036912681C605961FA
:1086E000D0E909415C60C46A9960B0F86010DC6050
:1086F0000023D1625DF8044B0376704710B4037D0C
:1087000001681F2B09D94C68203B202202FA03F391
:108710001C4215D15DF8044B70470C68202202FA08
:1087200003F31C42F6D00D4A4068002482F840450D
:1087300002685DF8044B22F0010202608B60704712
:10874000064A4068002482F8404502685DF8044B00
:1087500022F001020260CB60704700BFF01E0020D3
:10876000704700BF0B4890F83C1589B101EB4101FF
:10877000002310B4490000F244501C4650F8232056
:10878000063302B114608B42F8D15DF8044B704798
:10879000704700BF040000100B4890F83C1589B1E9
:1087A00001EB4101002310B4490000F244501C4683
:1087B00050F82320063302B114609942F8D15DF8D5
:1087C000044B7047704700BF040000100120704741
:1087D000034B00EB400003EBC00090F855057047D9
:1087E000040000101F4890F83C35002B39D00022BF
:1087F0002DE9F04300F244531B4E1C4D4FF0500E38
:108800004FF02C0C144607E053F8181B0C6090F83E
:108810003C150132914222DD197C0029F4D05F68B9
:10882000B90AA1F5801105EB010952294FF0FE08A4
:1088300098BF99F8F483EFF311898EF31288796A5F
:108840000CFB08680131C8F86C15B98A89B241F08F
:1088500001015FFA89F8B98288F31188D4E7BDE88D
:10886000F083704704000010F01E002014AE0708CB
:1088700007EE900AB8EE670A704700BFBCEEC00A68
:1088800010EE103A98B270470D4B0E49DB68DB438F
:10889000C3F30223C3F104030122DBB202FA03F3A0
:1088A00001EB000C1B0103F0F0038CF800334309CB
:1088B00000F01F0002FA00F041F82300704700BFEB
:1088C00000ED00E000E100E0037D1F2B08D9026805
:1088D000203B5168202202FA03F3194214D1704759
:1088E00001682022096802FA03F31942F7D00D4A01
:1088F00041684FF0000C82F8ACC70A68006822F0AB
:1089000001020A6083607047064A41684FF0000C1C
:1089100082F8ACC70A68006822F001020A60C360EE
:10892000704700BFF01E0020122301480B807047E3
:1089300088010020042301480B8070479C0100201F
:108940002048D0F8E837D0F8EC2730B59B184FF026
:108950001A040C8001D11C4830BD1B4AD0F8EA171C
:108960004FF0000E10467546B3F1204F4FEA137CCE
:108970000CF130040EF1020E2ABF0CF1370C84709A
:1089800080F802C0BEF1100FC5704FEA031300F16A
:108990000200E9D100200446B1F1204F4FEA1173E3
:1089A00003F1300C00F102002ABF373382F812C005
:1089B00093740828D4744FEA011102F10202EBD13A
:1089C000014830BD00F0FF1FA001002082B01F4B06
:1089D000002201920193019B1D4A04330193019BE4
:1089E0001968936803F00C03042B07D0082B0AD0F6
:1089F000184B194AC3F8B02702B07047154BC3F89B
:108A0000B01702B070475368506813F4800F00F03D
:108A10003F00536813D1C3F388130F49B1FBF0F142
:108A200001FB03F30A4A0B495268C2F301420132C7
:108A30005200B3FBF2F3C1F8B03702B07047C3F392
:108A40008813B1FBF0F101FB03F3EBE75028004082
:108A500000380240F01E00200024F4000123437778
:108A600000207047D0E90B2108B583690B4483616E
:108A70000AB108469047002008BD00BF436A1B6842
:108A80001B6A5B685B78024613F0010008BF5077F1
:108A9000704700BF70B5224A224C234B94B0054664
:108AA000CDE90042214A0992A4F108020A922A7FE4
:108AB0000493201D0023CDE905039A42CDE90E332E
:108AC0000B931093139314BF0520042011936B6A2A
:108AD0000C9002200122029018688DF80C200E469E
:108AE00007928DF820208DF834208DF848206EF004
:108AF0009FFD2B7F93B1330E04F8073C063C320CEC
:108B0000330A22706370A670686A694612F0BAFE72
:108B10006B6A18686EF08CFD14B070BD073CEEE710
:108B2000A4260020C40100207D8A00085D8A000878
:108B300010B5044694B050220649684672F0A2F877
:108B4000606A694612F09EFE636A18686EF070FDF6
:108B500014B010BD5CB20708C2628161704700BFEB
:108B60002DE9F0410446406A00681E460F469046D3
:108B70006EF05EFD237F002B3FD02A4DA0690523B8
:108B8000EB67030E85F8453005F146039870020C3B
:108B9000000A58701A703B68C5F888300020D8F871
:108BA0000030C5F89030012E2363C5F8A0002BD00B
:108BB000022E20D1D8F80420C5F89800796885F8ED
:108BC0009400C5F89C1013441749C5F8A42001204F
:108BD000236385F8A800C5F8AC10144B617F606A68
:108BE00003F11402002914BF1946114612F04AFE7F
:108BF000E36A8BB1206BBDE8F0810A4DA0690423C4
:108C0000EB6705F14503C1E7074B85F89460C5E9BB
:108C10002630C5F8A400E0E7636A18686EF008FD26
:108C2000E8E700BF88010020658A0008D401002021
:108C3000704700BF00B583B081610192049A009330
:108C4000C26201236A4601A9FFF78AFF03B05DF8FB
:108C500004FB00BF04307047C2628161704700BFEF
:108C6000436A1B681B6A5B689B78024613F001002D
:108C700008BF5077704700BF01234377002070473B
:108C8000D0E90B2108B583690B4483610AB108461A
:108C90009047002008BD00BF704700BF04307047F8
:108CA00010B4094CD4F8B8074FF0340C0CFB00F0AA
:108CB00004EB000C04F2BC742044DCF8BC47A4694B
:108CC000A4465DF8044B6047F01E0020064BD3F825
:108CD000B827342101FB02F203F2BC7013441044A4
:108CE000D3F8BC37DB691847F01E0020043070470A
:108CF0000D4B93F82828D3F824180244D2B283F8F5
:108D0000282893F8282808441206C3F8240805D513
:108D100093F8282882F0800283F82828034B012248
:108D200083F8C420704700BFF01E00208801002097
:108D30002DE9F047144FD7F82C58ED0A1ED0002625
:108D4000B04607F66409D7F830381048D3F828A0A1
:108D5000C7F85C88AC19641010234A46E102D0477A
:108D60000F280BDD0A4B03F1100C53F8041B0131E3
:108D700007D16345F9D12546B542E4DCE802BDE8F8
:108D8000F087661CF8E700BFF01E002020270020B7
:108D9000542700201C4BD3F87418D3F878288A1A6B
:108DA000322A16D8D3F88C288A4200D37047D3F8D9
:108DB000802822B31068928810B44469323122426C
:108DC00018BF42835DF8044B08BF0283C3F88C18B8
:108DD000704793F87C28D3F8801802F0010219B18B
:108DE00032B90A68898811830022C3F88C28704739
:108DF0000A68898851830022C3F88C287047323171
:108E0000C3F88C18704700BFF01E0020094A92F882
:108E10007C38D2F8802803F001031AB123B9136813
:108E200092881A8300207047136892885A83002022
:108E3000704700BFF01E00204FF40070034B10601D
:108E4000D3F898380B600020704700BFF01E002058
:108E500000207047012070470120704700207047B4
:108E600010B51C6994420DD396468A188C469442DC
:108E7000996938BFA4EB0E0C71446246BDE81040FE
:108E800071F000BF10BD00BF30B4194B00209C7BB7
:108E900014B11D688D4206D001300B2803F1100378
:108EA000F5D130BC70479AB1124B03EB40218A4296
:108EB00019D0114B93F8E4278AB1104B01225A7054
:108EC00000F5B17003EB00100123837130BC7047D3
:108ED0000A4B00F5B17003EB00108271E1E701224B
:108EE00083F8E427E9E7022CE3D1183BE8E700BF69
:108EF000785D002078470020605700206047002000
:108F000030B41D4C002384F8D03604F5C36004E06F
:108F100001330B2B00F1100015D005688D42F7D1FD
:108F200090F80EC0BCF1030FF2D1C2B1134901EBAE
:108F30004320824209D1A1F1180203F5B17302EB7B
:108F4000031301229A7130BC704794F8E42712B9D8
:108F5000012284F8E4270A4A01215170EDE708490B
:108F6000D4F8CC2603F5B17301EB031301320421CD
:108F70009971C4F8CC26E6E76057002078470020B6
:108F800060470020A8B183681BB10E4B07229A707E
:108F900070470C4A1178D36003294FF004000CBFCE
:108FA00080214FF48071C2E9011113611375907033
:108FB0007047044A02F580510123537081F8E43769
:108FC000704700BF604700200C4AF8B51368556928
:108FD0002B4003EA000555617DB1094F0126B5FA22
:108FE00085F4C4F11F0407EB840306FA04F4D3F8F4
:108FF000C80803689847A543F1D1F8BD003C01407B
:10900000F01E0020038A2DE9F047B0F80C901FFAFB
:1090100089F919EA03092BD005460E464FF000479F
:109020004FF00008B9FA89F327FA03F2D24391B25C
:109030001B3B298209EA0209042B16D8DFE803F05A
:10904000352C231A0300B36A002B37D003F1FF3A03
:109050001FFA8AFAC6F82880746A34B12368204659
:10906000514698476468002CF8D1B9F1000FD9D166
:10907000BDE8F0877068696B036889B29847B9F1F9
:10908000000FCFD1F4E7B068A96B036889B29847A5
:10909000B9F1000FC6D1EBE7F068E96B036889B25C
:1090A0009847B9F1000FBDD1E2E73069296C036838
:1090B00089B29847B9F1000FB4D1D9E7E96A1FFA2C
:1090C00081FAC9E72DE9F0430446406A344D00684F
:1090D00095B00E46914698466EF0AAFA314B019330
:1090E000314B049305F1D0030093217F02230293B7
:1090F00005F1C802012300278DF80C300592069770
:10910000002936D08DF834308DF84830CDE9097714
:10911000330ECDE90E77CDE9107785F8C9300523F8
:10912000CDF82C908DF82070CDF830801397CA358B
:109130000793330C1D4F2B70330A6B70AE70D7F84A
:109140000C09656A12F0FCFE637FA88033BB05A999
:10915000284612F097FB636A18686EF069FAD7F830
:10916000100912F0EDFE636A9880404615B0BDE824
:10917000F0838DF834308DF848300423CDE909119F
:10918000CDE90E11CDE91011CDF82C908DF82010FD
:10919000CDF830801391C9350793CAE76946D7E700
:1091A00088010020F82700207D8A0008F01E00209A
:1091B00070B5224B93F8DC2493F8DD349A4237D112
:1091C0001F4D95F80436E3B195F808461D4B002075
:1091D00040F20D3CB4B19A689989516016681968DB
:1091E00046F001061660A1F848C08A8992B242F49E
:1091F00080728A8195F804260130824203F11803B7
:10920000E8DC70BD1A68118821F080010904090C9E
:1092100011809988D162118889B241F08001118052
:109220005462998A9689314389B291819C82E1E79F
:109230006CF0BAFB0028C3D170BD00BFF01E002047
:1092400004000010042800202DE9F0411E4B93F883
:10925000DC2493F8DD349A422FD11C4F7D68002D19
:1092600012DD3846002410F8086BA046013416B110
:10927000037E012B1CD002691368AC4243F001034A
:1092800000F580701360F1D114F052FAD7F80C4653
:10929000002C0BDD0E4A02EBC40411689388888908
:1092A000083203439BB294428B81F6D1BDE8F08132
:1092B00080F8F080FFF7F8F9DDE76CF075FB002827
:1092C000CBD1BDE8F08100BFF01E002004000010EB
:1092D000140600102DE9F04F037D02681F2B83B0A8
:1092E000044609D95068A3F120052021A940014274
:1092F00007D103B0BDE8F08F1068202199400142EA
:10930000F7D05149514D4968C5F8301695F80816FF
:10931000A7694F4E19BB8C2101FB0761D1F884006E
:10932000D1F8FCE0D0F800C0DEF80000B1F8888089
:1093300020F00100CEF80000BCF80C1089B221EA40
:109340000801ACF80C10297801BB1F2B6FD9A3F1D1
:10935000200120238B40D36003B0BDE8F08F8C2127
:1093600001FB0761D1F88410D1F810C00868DCF85F
:10937000001021F00101CCF80010818921F48071E6
:109380000904090C818129780029DED04FF08C086E
:1093900008FB07F806EB08032E49D3F8FCA0D3F826
:1093A00084200193504608F11809D2F800B089448E
:1093B00060F01CF8019BD5F838262649012083F877
:1093C000D000002A3AD0BBF800309BB243F08003B3
:1093D000ABF8003008F174084FF0FF334144CBF88C
:1093E0002C30584660F06CFA8C2303FB0766002390
:1093F0004946C6F8A030504660F08EF8D6F8FC30EA
:1094000016225A601A6842F001021A60D6F88420C7
:10941000B6F88830126891890B439BB293810A4950
:10942000237D49682268C5F834161F2B8FD8202168
:1094300001FA03F3936003B0BDE8F08F14F078F9FC
:109440000449C5F83806BEE7001000E0040000102B
:10945000F01E00206C1F00202DE9F04114F068F987
:109460001F4F204E05464FF000087C68002C2ADD77
:1094700000231A4607EB0321013391F8F9109C42AF
:1094800042EA0102F6D142EA0804E4B29046736867
:10949000C3F30803A3B9EFF311838BB919F000F8F4
:1094A000431BB3F5FA6F02DCB8F1000FDDD124B134
:1094B0000D4B93F8D429542A09D02046BDE8F081F9
:1094C00014F00AF9ECE744464FF00008DFE7B3F880
:1094D000DC290132A3F8DC292046BDE8F08100BF79
:1094E0000400001000ED00E0F01E0020BC4B1B78D3
:1094F0000BB9012070472DE9F04FBA4DBA49D5F8A4
:109500007428BA4BA1FB02125209A3FB023A4FEA9C
:10951000DA0A0AEB8A0AA2EB4A0A85B0B04A5FFA75
:109520008AF3039302F61C1302F23C6701930023B3
:1095300007EB8A0A02F581699846A94BD3F8243AC9
:10954000434540F31781D9F81830D9F80460D3E9BE
:109550003A34029314F0ECF8029B95F8D4C90290C7
:109560004FEA860E95F8E8090EF1085E04F1806175
:109570000EEB431E3939BCF1540F0EEB81110EEB8B
:10958000801301D1A5F8DE09994240F26A811A6878
:10959000002A00F05E811A6C002A00F07081D3F876
:1095A0008020002A00F06D81D3F8C02003F580737D
:1095B000002AE9D1A3EB0E0E99424FEAAE1E40F20B
:1095C0005081A4EB0E0145294FF0000428BF45212E
:1095D00003EB81119B46204626460DE01A6C002ABB
:1095E00040F0D080D3F88020002A40F0F680D3F8F5
:1095F000C02003F580732AB9994206D91A68002A57
:10960000ECD04033994200F2C180112E344640F232
:109610002C81D6F1150200F128817549029ED1F8FE
:10962000D4309E45D5F8EC3938BFC1F8D4E0F11AF2
:10963000002919DB03F5F42303F590739E4288BFDC
:10964000029B6B4988BF0533C5F8EC39684BD3F8EA
:10965000D430052B86BF053BDBB2002385F8E83903
:109660004FF0FF33C1F8D43042B100FA02F2C4F136
:109670001404012000FA04F444EA02005D4BC0F334
:10968000C43203EB8202D2F8981400F01F0203EBFD
:109690008202D2F8982442EA0131C0F3441203EB6B
:1096A0008202C0F3842003EB8000D2F8983441EAB0
:1096B0000311D0F8983441EA032181EA112383EAA7
:1096C000131303F00F030F2B40F0B180B1F5803F6F
:1096D00080F0AD80BCF1540F4FEA111104D1B5F800
:1096E000D8390133A5F8D8393D4AD2F82439B1F533
:1096F000606F03F10103C2F8243900F0D480019BAC
:10970000998197F858300398834210D0DAF80820EE
:109710003B689B1A3B60DAF830207B689B1A7B60C1
:109720000023CAF80830CAF8303087F858003B6880
:1097300001333B60DAF808300133CAF808304FF6DD
:10974000FF73994207D17B6801337B60DAF83030D0
:109750000133CAF83030019B08F101081433B8F125
:10976000080F07F15C070AF15C0A019309F120096F
:109770007FF4E3AE1A4A0123012082F8203A05B0B3
:10978000BDE8F08F803399427FF63FAF5A469A1A70
:109790009211541C184A82FB04B2A2EBE472012A13
:1097A000B8BF0122904001241644013A04FA02F2A3
:1097B00010431C4622680AB3226C002A63D0D4F8F6
:1097C0008020002A61D0D4F8C02004F58074B2B1A2
:1097D000A142EFD89B4623460EE7C03312E700BFF5
:1097E00004000010F01E00201F85EB51CDCCCCCC26
:1097F0008801002014AE0708565555554034A14243
:10980000E8D9E31A9B115A1C2F4B83FB02B3A3EB3D
:10981000E273012BB8BF012398401E440122013B93
:1098200002FA03F3184323469B462346E4E6BCF1C1
:10983000540F2CD0254AD2F824390133C2F82439E8
:10984000224AD2F820390133C2F820394FF6FF718D
:1098500057E74033A3EB0E0E99424FEAAE1E3FF698
:10986000B0AE10B1013885F8E809BCF1540F7FF4AF
:1098700072AFB5F8DA390133A5F8DA396BE780331E
:1098800098E6C03396E68034B9E7C034B7E7B5F858
:10989000D8390E4A0133A5F8D839D2F82439013322
:1098A000C2F82439CCE795F8DD3403EB430305EB2C
:1098B000C303434493F8ED340D2B7FF420AF019A9A
:1098C000802393771DE700BF5655555504000010BF
:1098D00010B5044670F05EFC81B22046BDE8104031
:1098E000FEF740BE38B50B4D00EB400005F2445387
:1098F00003EBC00393ED027AD3ED037AE7EE007A2F
:10990000C4002C44B0EE670A70F044FCD4F844352F
:10991000186038BD040000100A4608B5054920B992
:10992000054860F0F3F8034808BD044860F0EEF81D
:10993000004808BDE0280020244908084C490808D0
:1099400010B5044C04480A46214660F0DFF8204672
:1099500010BD00BFE02800207449080810B5044C71
:1099600004480A46214660F0D1F8204610BD00BFE9
:10997000E02800208849080810B5044C04480A462D
:10998000214660F0C3F8204610BD00BFE02800204B
:109990009449080838B590F82830012B044604D0C3
:1099A000407F40B10023637738BD406A03681A7B6B
:1099B00092B9637F0BB9012038BD0A4D0A490223D1
:1099C00005F52F6212F072F895F8F13A03F00103F1
:1099D00083F001006377E7E71B6A002BE9D00020E2
:1099E00038BD00BFF01E0020600200202DE9F041CC
:1099F0000446154E90F82800637F144F06F52F6833
:109A0000012805D00BB1002363770120BDE8F08168
:109A1000606A05682A7B82B9002BF6D00223424691
:109A2000394612F043F896F8F13A03F001036377F0
:109A3000002BEAD094F82800E2E72A6A002AE8D14D
:109A4000002BE2D0EAE700BFF01E002060020020F9
:109A5000F0B511F0010583B00AD190F82860012E0D
:109A6000044607D0C368B3F1807F01D9012323776F
:109A700003B0F0BD0A4B476AD3F80C0912F060FA44
:109A8000E368B880B3F1807FF2D9B7218DF8041074
:109A9000267733462A46384601A912F007F8E7E749
:109AA000F01E002010B590F82830012B044603D09A
:109AB00000230120637710BD406A03681A7B3AB91E
:109AC0006DF0BAFD00F0010383F001006377F2E767
:109AD0001B6A002BF4D0002010BD00BF38B5114D1B
:109AE000044694F82830012B05D000236377002327
:109AF0002362012038BD606A03681A7B72B96DF079
:109B00009BFD00F0010060770028F0D0D5F8743894
:109B1000226A9B1A002BE4DB002038BD1B6A002B55
:109B2000EDD0F3E7F01E002010B5FF22044690F8B8
:109B30002810406A6EF09AFC0E4BD3F8743803F587
:109B4000FA7323622046FFF7C9FF94F82830012BEF
:109B500000D010BD606A0022A0216EF061FC94F874
:109B60002830012BF5D1606A1822BDE81040B021E1
:109B70006EF056BCF01E0020CB0700D5704710B524
:109B80000446FFF7D1FF94F82830012B00D010BD18
:109B9000024812F0D5F9636A988010BD00E1F5051E
:109BA00038B504460D46FFF799FF062294F82810B1
:109BB000606A6EF05BFC94F8283001229342627771
:109BC00005D0064BD3F874380F33236238BD606A72
:109BD000EA0AD8216EF000FCF3E700BFF01E002077
:109BE0008388002B4AD02DE9F04F8DB0DFF89080AC
:109BF0000446002606274FF001090DF1070509E08C
:109C000084F81D90D8F87438A28801360F33B24218
:109C1000236230D92046FFF761FF94F828A0D4F8DA
:109C200024B08DF80770BAF1010FE9D1002302A921
:109C30005846CDE90253CDE90633CDE908330B93FD
:109C4000CDF810A08DF814A08DF828A011F01AFE00
:109C5000DBF800006DF0ECFC94F8283084F81DA0CF
:109C60007204012B4FEAD2224FF0D801CAD1606AA8
:109C70006EF0B2FBC6E70DB0BDE8F08F704700BFD5
:109C8000F01E002070B5104D95F8F23A03B970BD82
:109C9000D5F8F46A0D4B0446F60AC3F8DC60FFF70A
:109CA0001DFF94F82830012B07D0D5F87438002216
:109CB0000233236285F8F22A70BD606A32461021B1
:109CC0006EF08AFBF1E700BFF01E00208801002043
:109CD0002DE9F047414F1E46D7F8DC30B3EBD12FCA
:109CE00090B00C460546904621D1DFF8F49095F8E7
:109CF0002830C4F30A04C4F50060B04234BF87B210
:109D0000B7B2012B3CD0D9F87438023328462B6205
:109D1000FFF7E4FE38B195F82830012B23D0384600
:109D200010B0BDE8F087002010B0BDE8F0874FEA22
:109D3000D12AFFF7D3FE0028F5D095F828304FF050
:109D4000FF32012BC7F8DC2042D0DFF89490D9F81D
:109D50007438023328462B62FFF7C0FE0028E2D099
:109D6000C7F8DCA0C3E7686A6DF066FCC0F30110B9
:109D700001380228D3D82846FFF7D6FE3846CFE769
:109D80008DF80240240A8DF801406C6A8DF8243069
:109D90008DF83830032300228DF80030204604234C
:109DA00001A9CDE90786CDE90522CDE90A22CDE951
:109DB0000C228DF8032002928DF810200F92CDF81E
:109DC00004D0039311F05EFD20686DF031FC9AE73A
:109DD000686A524613216EF0FFFAB6E78801002048
:109DE000F01E00202DE9F843436A394E04461868F6
:109DF0000F4690466DF01CFC96F8F23A002B37D0D7
:109E0000344DD6F8F83A85F88231C3F3022385F849
:109E1000813105F1E0093B68C5F88831D8F8003098
:109E20002D4AC5F89031606A00234946C5F898313B
:109E300012F0EEF8D6F8F83AD8F800201344C6F835
:109E4000F83AC3F30A07012386F8F23AFFB1234B2D
:109E5000C5F89831637F0BB909F11409606A226370
:109E6000494611F00FFDE36A53B3206BBDE8F88358
:109E7000A369184DC6F8F83AC6F8F43A85F8863161
:109E8000C3F3022385F8853105F59879C3E7D6F841
:109E9000F43A134A606AD90AC5F8DC10DB0C85F87D
:109EA000B311A2F12C0185F8B23112F0B1F8D6F855
:109EB000F83AD8F8002086F8F27AC6F8F43AC9E7FA
:109EC000636A18686DF0B4FB206BBDE8F88300BFCF
:109ED000F01E00208801002010030020818C000863
:109EE0003C03002033B910B51C46C36A204698478E
:109EF000204610BD76E700BF00B583B081610192B6
:109F0000049AC26201A96A460093FFF76BFF03B08F
:109F10005DF804FB2DE9F047089F884615460021AF
:109F2000202204461E4670F010FF4FB13B68E381CB
:109F30001B0C23827B687A89E3821B0C6282238359
:109F400040466EF0B5FAEB0619D4431EB8B108EBE3
:109F5000000701E0013B12D317F801CDBCF12E0F31
:109F6000F8D1C01A421E032AA8BF0322082B03F10E
:109F7000010AA8BF08239146C2441A4606E00828F1
:109F80000246C246A8BF08224FF000094FF0203316
:109F900041462360636004F10807204670F072FEBA
:109FA000174B23815146BB704A46384670F06AFE13
:109FB000611EE31D11F801CFACF1610EBEF1190F66
:109FC0009CBFACF1200C81F800C08B42F2D1384626
:109FD00004F10B0110F8013BA3F16102192A9CBFA7
:109FE000203B00F8013C8842F4D118232373330C42
:109FF000A382E572099B6683E361BDE8F08700BF39
:10A00000202020002DE9F04FDFF88894D9F874085B
:10A01000C9F8780887B0002B00F0DA8001F5FE78E7
:10A020001344DFF874B40393164601F12007C246C7
:10A0300021E0002E64D0D9F8A438B34200F0CC80DF
:10A04000D9F8A038B34200F0FF80D9F8A838D9F881
:10A05000AC18B3424BD8B14200F29981711A204634
:10A0600069F0D4FF039B01369E4207F500770AF59D
:10A07000007A00F0AD80D9F8B058B542A7F12004BD
:10A08000D7D8751BD9F8C08805F00702EB080492F1
:10A09000D8F830200233934203D3D8F838209342C3
:10A0A0000BD941461846059369F080FF059B804611
:10A0B000002800F08C81C9F8C00898F80420002A14
:10A0C00040F03481D8F82850002D00F07981D8F87C
:10A0D00030209B1A049A02EBC303D8F80C202046C8
:10A0E00002EB43224FF400714346A847BAE7B1425E
:10A0F000B4D920464FF40072002170F026FEB1E77B
:10A100004FF400723146204670F01FFE802387F81E
:10A110009E310C2387F8A231D9F8A038D44AD9F857
:10A120009818C4F8C6319342C4F8CA1100F33481B8
:10A13000D04AD14C82FB03021A44D817C0EB6212FA
:10A1400084FB0254CD4D85FB03C5C0EB2530C2EB2B
:10A15000821587F8A1015B1B801020F03F000133BE
:10A160000343144487F8A031D317C3EBE41422440B
:10A17000BF4B87F89F214A1E9A4200F31981BD4BBD
:10A18000BD4883FB02311144D317C3EB611180FB3F
:10A190000140BA4C84FB0254C3EB2433C1EB81145D
:10A1A00087F8A531121B9B1023F03F0301321343A4
:10A1B000084487F8A431CB17C3EBE010014487F8BB
:10A1C000A311552387F8DE31AA2387F8DF3149E749
:10A1D000002007B0BDE8F08F4FF0FF3384F8EC317A
:10A1E00084F8ED3184F8EE3184F8EF31D9F8B838DD
:10A1F000C4F8E8315223237063706123A37084F89C
:10A20000E73141230025E37084F8E631722384F8B6
:10A21000E43184F8E5314FF4F0722946A7F11C00CF
:10A2200070F093FD5523C7F8D051C7F8D451C7F843
:10A23000D85184F8FE316FF0550384F8FC5184F84E
:10A24000FD5184F8FF310DE700214FF400722046E4
:10A2500070F07BFD8A4A03CA47F81D0CEB2007F813
:10A26000200C582007F81F0C902047F8191C07F8FD
:10A270001E0C002302220821F820E372227307F843
:10A28000131CA273E37307F8102C07F80B0CD9F812
:10A29000A00884F82C20D9F898286376121A226234
:10A2A000D9F8A808D9F8AC28E376121A3F2020760E
:10A2B0004FF0FF30A0763E20207701206377A37710
:10A2C000E37784F82D3084F82E3084F82F306262E2
:10A2D00084F8300084F8313087F82610802187F820
:10A2E0002010292187F82210942187F823100E21AD
:10A2F00087F824100D21634A87F82510552187F827
:10A30000DE11AA2187F8DF1103CA5F4BC7F82700C7
:10A31000C7F82B1003CB1388A7F82F309378C7F812
:10A320003200C7F8361087F831309BE64FF40072E0
:10A330000021204670F009FD049B002B4ED1D8F877
:10A340004030002B00F0AA80049AD8F830304F49F2
:10A35000CDE9002220461122FFF7DCFDD8F840307D
:10A360001A6C002A00F0AD80049A1B6BCDE9002224
:10A37000474911223846FFF7CDFDD8F8448007F150
:10A3800020044FF4E075B8F1000F3FD16AE6F11AEE
:10A39000204669F03BFE65E6FF2387F89F3187F88A
:10A3A000A13187F8A031324B4A1E9A427FF7E7AEBF
:10A3B000FF2387F8A33187F8A53187F8A43100E798
:10A3C000294620464FF4007270F0BFFC4AE6A7F120
:10A3D000240343F804BF9A45FBD143E6D8F8403044
:10A3E000049AD8F84480002B0CBF01230223C3EB4E
:10A3F00002154346002B3FF435AE013D9B6CF9D16D
:10A4000098464FF40075002B3FF42CAE25442034C1
:10A41000234620354446049698460EE05CF81C1B03
:10A42000236BCDF800C000260196FFF773FDA46CE6
:10A4300008F12008CCB1A84517D02379A44604F12F
:10A440001C0E1122A8F12000002BE7D162792669A9
:10A45000236B216842F02102CDE900E6FFF75AFDA7
:10A46000A46C08F12008002CE5D1049EFAE500BF99
:10A47000FF03FB008320088281808080975545413F
:10A48000AC490808B8490808C4490808A44908089C
:10A49000A8490808F01E0020DEADBEEF049BD9F8E5
:10A4A0009C18CDE9003320460822FFF733FDD8F889
:10A4B0004480B8F1000F3FF4D5AD3C464FF4F07541
:10A4C000A4E7049BCDE9003352E700BF58B183886D
:10A4D0004FF00042B3FA83F332FA03F303D0024998
:10A4E0000A6813430B607047003C014090F8DB3072
:10A4F000052B03D890F81E31032B01D000207047A4
:10A5000090F8233103F0FB03022B0CBF002007203F
:10A510007047084B10B5D3F8FC3A18440C46807DC0
:10A5200011F0DCFF18B1828803680CB11A8310BDEA
:10A530005A83FCE7F01E002010B42A492A4A91F8F9
:10A5400004367BB3D2F81449A04239D0012B29D06C
:10A55000D2F82C49844239D0022B23D0D2F8444976
:10A56000A04235D0032B1DD0D2F85C49A04231D097
:10A57000042B17D0D2F87449A0422DD0052B11D04E
:10A58000D2F88C49A04229D0062B0BD0D2F8A4498E
:10A59000A04225D0072B05D0D2F8BC49844208BF81
:10A5A00007230ED003F1010C81F804C603EB43012D
:10A5B00002EBC1025DF8044BC2F81409184670475B
:10A5C0000023DBB218465DF8044B70470123F8E71F
:10A5D0000223F6E70323F4E70423F2E70523F0E779
:10A5E0000623EEE704000010F01E002038B5424CB0
:10A5F0008C2303FB004393F88B3003B938BD94F8E8
:10A60000DCC494F8DD349C450ED003EB430204EB2C
:10A61000C20292F8E0E40EF1FF35012D4FEA430249
:10A6200046D9BEF1030F3ED08C2202FB0042A2F8B5
:10A630007C10EFF31181902383F31288B2F87C50E1
:10A6400092F87E3043EA45030025C9B29BB282F8F6
:10A650007E5081F3118829491A090D7882EA132264
:10A660005A4005B1D2431B019BB202F00F021A43BC
:10A6700091F808365BBB8C2303FB0044D1F8283AE1
:10A68000D4F8040101219847D4F80011B4F8885097
:10A690008A8AD4F8FC302A438A8258601A6842F0C9
:10A6A00001021A6038BD5D1C05F003056545BBD08D
:10A6B000134404EBC303034493F8ED140029B3D00F
:10A6C0008C2303FB0043012283F87E20ACE78C231C
:10A6D00003FB0044D1F8285AD4F88430D4F8001190
:10A6E0005B79086903F0FC0318440421A847D4F8F7
:10A6F00000318000988138BDF01E00200400001059
:10A7000043680B4A23F0407323F4807343F480734F
:10A71000436083681A4042F002028260C36A0139D2
:10A72000CAB223F4700141EA0251C162704700BF0E
:10A73000FDF7FFC0704700BF0020FDF773BC00BFEE
:10A740000120FDF76FBC00BF0220FDF76BBC00BF0E
:10A7500010B1036882881A83704700BF30B1036864
:10A7600082881B691A4214BF01200020704700BF75
:10A7700010B1036882885A83704700BF10B404691F
:10A780008269E468416814604024D460446900230D
:10A790000C31C2E90433C2E90633C2E90833C2E925
:10A7A0000A33C2E90C3393609363516084B1C26988
:10A7B000E0689363C2E90233C2E90433C2E90633B5
:10A7C000C2E90833C2E90A33C2E90C33C2E9000125
:10A7D0005DF8044B704700BF436800221A60037D98
:10A7E0001F2B08D9203B2022016802FA03F343F013
:10A7F0001803CB6070472022016802FA03F343F08C
:10A8000018038B60704700BF0268136A11B1D969E1
:10A8100001B3143330B49C681D689169DDB14FF405
:10A82000806088618D60104640690C6180B1596814
:10A83000D369D9B10A464FF480619A609961224385
:10A8400012F0010F14BF00224FF400521A621C6173
:10A8500030BC704770478D61064D4FF0FF0C85F896
:10A8600004C205F5017500688D60DDE7024A9A6053
:10A870009961E4E788010020F02900200168F8B51B
:10A88000D1E9042304465568002B49D09861107D16
:10A890005E681F2831D81768202202FA00F040F0C5
:10A8A0001800B8601A7D1F2A32D91868203A202370
:10A8B00003FA02F242F01802C26000232B603360F8
:10A8C0003368896943F01003336028465EF024FE44
:10A8D00023683046D9695EF01FFE2B68226843F07A
:10A8E00001032B603368526843F00103336093889F
:10A8F0009BB243F003039380F8BD176820382022F1
:10A9000002FA00F040F01800F8601A7D1F2ACCD837
:10A910001868202303FA02F242F018028260CCE7A2
:10A92000137D90611F2B1CD81068202202FA03F3BC
:10A9300043F01803836000232B602B68896943F080
:10A9400010032B6028465EF0E7FD2B68226843F079
:10A95000010352682B6093889BB243F002039380FB
:10A96000F8BD1068203B202202FA03F343F01803DD
:10A97000C360E0E72DE9F0417F4D804E07463C681B
:10A9800097F888806368B888012284F824201A88A0
:10A9900022F040021204120C1A802289824223D033
:10A9A000198821F038010904AB424FEA114100F047
:10A9B000BF80734A934200F0BB800246B2F5807FAD
:10A9C000A8BF4FF48072022AB8BF0222002A92FA6E
:10A9D000A2F2B2FA82F208BF4FF0FF32013A41EA26
:10A9E000C20292B21A802081397BA27A8A420CD0AC
:10A9F0001A8822F003021204120C1A801A8892B2EA
:10AA0000002900F092801A80A1721A8892B242F056
:10AA100040021A80226A9168002900F0A3804FF05A
:10AA2000000C1432E64652F8100C8E4400EA06017F
:10AA300020B1B1F1805F23D0616909B352F8140CE1
:10AA4000143200EA060110B1B1F1805F18D052F85B
:10AA50000C1C0CF1010C0029E5D1227B82B1B8F16C
:10AA6000000F0DD0BCF1010F6FD8BEF1070F6CD8ED
:10AA70000CEB8C018900226A11440A7B002A64D005
:10AA8000226A92684FF00008002A53D0B8F1000FF4
:10AA900002D098F80C2022B1BA6812B111689288DD
:10AAA0004A83226AD2F800E0226A5168226A9268D8
:10AAB000501E9AB1BEF1000F23D01EF801CB1A89A7
:10AAC0009207FCD5A3F80CC01A89D207FCD59A8945
:10AAD00092B209B101F8012B0138EBD2236A1B7B3A
:10AAE000E3B9236A1B697BB1236AD7F894001B6919
:10AAF000984701280DD0022806D100232362BDE823
:10AB0000F0814FF0FF0CDAE7D4F82080236A143389
:10AB10002362236A9B686BB16368B7E7BB68002B4D
:10AB2000DFD01A689B881383DBE742F003026AE7F1
:10AB3000420843E7236A1B68DBB1236AD3E900724A
:10AB400022620022C3E9002219E700213846FFF7FC
:10AB50005BFEBB6813B11A689B8853833846BDE817
:10AB6000F0418BE6227B002A8AD0B8F1000F82D117
:10AB700086E72362C3E700BF003800400000FFFF04
:10AB8000003C004038B5D0F8E0102B4B04465A6822
:10AB9000D0F8D80071B1131A99420BDC94F8D03078
:10ABA000C4F8D820012B10D0D4F8D4300133C4F825
:10ABB000D43038BDD4F8E430C4F8D8200344C4F805
:10ABC000DC3094F8D030012BEED16168201D04F107
:10ABD000E805EFF3118C102383F3128863681B6A76
:10ABE0000BB3D4F8F0302A461BB1D3691432002BD2
:10ABF000FBD10B6A6BB1996839B9934209D01968D6
:10AC000029B15B6899680029F7D01433F3E7C3E9E9
:10AC100000055FFA8CFC8CF31188D4F8D430013332
:10AC2000C4F8D43038BD0D625FFA8CFC8CF3118807
:10AC3000FFF7A0FEB8E700BF001000E02DE9F041EB
:10AC4000826992F8DC30012B8AB005464CD0023B79
:10AC5000012B54D892F84C31D2F89C202E4C63F042
:10AC60007F0313708669D6F8A030D6F8108003F100
:10AC7000010E0FCCEC46ACE80F00D6F89C30CDE9C5
:10AC8000003E0FCCACE80F0094E8030006F110077B
:10AC90008CE80300EFF31180102383F312883369EB
:10ACA0001B6A002B2FD0029B6A461BB1D36914325A
:10ACB000002BFBD1D8F8203073B1996839B9934291
:10ACC0000AD0196829B15B6899680029F7D0143354
:10ACD000F3E71F60C3F804D0C0B280F31188AA69FB
:10ACE00011690B6A002BFCD1D2F8A0305A8852BAF5
:10ACF000EA819A8852BA2A82DB885BBA6B82012089
:10AD00000AB0BDE8F081C8F820D0C0B280F3118845
:10AD10003846FFF72FFEE2E72CB307082DE9F04194
:10AD200090F8DC30D0F8A050012B8AB0044672D0E5
:10AD300016D8D0F89C304FF0FF321A605A609A60F3
:10AD4000DA60D0F8E0300522B3F57A7FC0F8F02061
:10AD50007CD8032380F8DC3001200AB0BDE8F08104
:10AD6000023B012BF8D890F84D31D0F89C20524E80
:10AD700063F07F031370D0F8A030D0F8108003F197
:10AD8000010E00F110070FCEEC46ACE80F00D4F82E
:10AD90009C30CDE9003E0FCEACE80F0096E80300F2
:10ADA0008CE80300EFF31180102383F312882369EA
:10ADB0001B6A002B73D0029B6A461BB1D369143205
:10ADC000002BFBD1D8F8203073B1996839B9934280
:10ADD0000AD0196829B15B6899680029F7D0143343
:10ADE000F3E71F60C3F804D0C0B280F31188226972
:10ADF000136A002BFCD16B885BBAA4F8D030AB8807
:10AE00005BBAA4F8D230EB8801205BBAA4F8D43046
:10AE10000AB0BDE8F08190F84C2190F84D319B1AB2
:10AE20005B100133DBB205EB430235F813305BBA3C
:10AE3000A0F8D03053885BBAA0F8D23093885BBAC0
:10AE4000A0F8D43001200AB0BDE8F08103691A7B74
:10AE500072B35B6963B390F898304BB390F84C31A0
:10AE6000D0F89C20C4F8A40063F07F03137090F81E
:10AE70004C1190F84D31D0F8A0201048C4F80401CE
:10AE80005B1A07330121C4F8FC30D4F89C3084F8F5
:10AE900000110A44C4E93D3284F8DC105CE7C8F8CC
:10AEA00020D0C0B280F311883846FFF763FD9EE7DB
:10AEB000022384F8DC304FE72CB307080180000838
:10AEC00008B51D2011F00AFB08B183794BB11E2093
:10AED00011F004FB08B1837903B108BD5523C38089
:10AEE00008BD5523C380F2E7D3B2012B23D870B538
:10AEF00002EB4202114C4FEA820E4FF0000C224648
:10AF00000EF10805634604E00133152B11D012F849
:10AF10001CCF6045F8D192F801C08C45F4D1565948
:10AF2000002EF1D0C3EBC3030EEB83030433E01810
:10AF300070BD002070BD0020704700BF54B30708EB
:10AF400010B40C4C002304F6043C01E0152B0CD08B
:10AF500003EB430201331CF802108142F6D1224474
:10AF60005DF8044B92F9060B70474FF0FF305DF827
:10AF7000044B7047F01E0020D3B2022B21D830B50D
:10AF800002EB4202104D114C4FEA820C0CF10C0EF8
:10AF90002A46002304E00133172B10D052F82C4F1F
:10AFA000A042F8D114798C42F5D152F80E40002C11
:10AFB000F1D02C2202FB03C30833E81830BD002077
:10AFC00030BD0020704700BF14AE070800000140EC
:10AFD000002838D030B51C4D90F804C0002305F689
:10AFE000043401E0152B2CD003EB43020133A15CA8
:10AFF0006145F7D12A44046892F9063B90F805E0D0
:10B00000DAB2022A1DD803EB4303104810494FEA75
:10B01000830C02460CF10C05002304E00133172BCE
:10B020000FD052F82C1F8C42F8D111797145F5D10F
:10B0300051590029F2D02C2202FB03C308331844D3
:10B0400030BD002030BD7047F01E002014AE070850
:10B05000000001400348D0F8183213B100F5027027
:10B0600018477047880100200348D0F83C3213B1DC
:10B0700000F50B7018477047880100200348D0F88E
:10B08000603213B100F51470184770478801002032
:10B090000348D0F8843213B100F51D70184770478B
:10B0A000880100200348D0F8A83213B100F52670BB
:10B0B00018477047880100200348D0F8CC3213B1FC
:10B0C00000F52F7018477047880100200348D0F81A
:10B0D000F03213B100F5387018477047880100202E
:10B0E0000348D0F8143313B100F541701847704786
:10B0F000880100200348D0F8383313B100F54A70B6
:10B1000018477047880100200348D0F85C3313B11A
:10B1100000F5537018477047880100200348D0F8A5
:10B12000803313B100F55C70184770478801002028
:10B130000348D0F8A43313B100F565701847704781
:10B14000880100200348D0F8C83313B100F56E70B1
:10B1500018477047880100200348D0F8EC3313B13A
:10B1600000F5777018477047880100200348D0F831
:10B17000103413B100F58060184770478801002033
:10B180000348D0F8343413B100F224401847704714
:10B1900088010020094B0A4A013800EBC00003EB8C
:10B1A0008000116BD0F80832064883420CBF4FF480
:10B1B00000134FF480030B43136370478801002092
:10B1C000003802400060024070B501383C4C3D4DF3
:10B1D00000EBC00C04EB8C0C9646DCF808623A4A93
:10B1E000AE420CBF4FF400154FF48005166B35438B
:10B1F0001563CCF81812CCF820323449DCF80C3244
:10B200008B424FEAC0023ED001F580618B423AD0BA
:10B21000A1F57A718B4247D001F580618B4243D012
:10B22000A1F57A718B4241D001F580618B423DD00E
:10B23000A1F57A718B4235D001F580618B4231D016
:10B24000A1F57A718B4233D001F580618B422FD00A
:10B25000A1F57A718B422DD001F580618B4229D006
:10B26000A1F57A718B4227D001F580618B4223D002
:10B27000A1F57A718B4221D0154D01F580618B4289
:10B2800018BF002500E0134D104404EB8003CEF3FB
:10B290008711C3F8285293F81D02BDE870400022C0
:10B2A00069F004B90C4DEFE70C4DEDE70C4DEBE701
:10B2B0000C4DE9E70C4DE7E70C4DE5E7044DE3E7FE
:10B2C0008801002000600240003802401060024007
:10B2D00000800028208000100080001800880010E6
:10B2E0000080201020800020008800200080202086
:10B2F0000D4B984214D0A3F58063984210D003F50B
:10B30000804398420CD003F58063984208D003F53F
:10B310008063984204D0054BD3F8B00740087047CB
:10B32000024BD3F8B007704700040140F01E002024
:10B33000800AA0F58010522808D8054B184490F8D0
:10B34000F4330D2B02D8034AD056704700207047C3
:10B3500014AE0708A44A0808094910B54B6C094CFB
:10B3600043F480434B644022002104F6C8006FF090
:10B37000ECFC4FF0FF33C4F8443BC4F8473B10BD2E
:10B3800000380240F01E00200120FDF71DBE00BF66
:10B390000220FDF719BE00BF0420FDF715BE00BF57
:10B3A0000820FDF711BE00BF1020FDF70DBE00BF45
:10B3B0004FF47870FDF708BE4FF47C40FDF704BEF3
:10B3C00030B50C4683B0054618B3036803F13F431C
:10B3D00003F57E039B0A104A134493F88C0769F027
:10B3E000F1F9A988009104F00303C4F381028DF8F8
:10B3F000043028688DF80520C4F300136946C4F3AF
:10B4000041148DF806308DF807405DF057FF03B00A
:10B4100030BD4FF0FF33DEE714AE070800B1CFE7D1
:10B42000704700BF2DE9F04302691778012F85B0FE
:10B4300004460D4618D10B79013B13714B79002B53
:10B4400008BF682300F1100803754FF000093B4660
:10B450000DF10502752140468DF8059010F0F4F8C5
:10B46000064600283ED1226902231370EB7823B9E7
:10B470000026304605B0BDE8F08304F11008A97835
:10B48000404610F087FD06460028F1D0E87811F01C
:10B4900025F8A0612B780133DBB210B1C3712223F0
:10B4A00083710921FFF7BAFFA069FFF751F9424AFA
:10B4B000D2F87438632BFBD94048DFF80891404F2D
:10B4C00010F03EFDA08202E059F8047F5FB34046D1
:10B4D000B84703460028F7D0206984F8D8306CF0CC
:10B4E000D5F8C6E720696CF0D1F83B4649460DF126
:10B4F0000602404610F0A8F89DF8063003F07E03DF
:10B500008DF8063008B1682B14D09DF8053003F093
:10B510007E03682B8DF805300FD0702BA9D1042342
:10B5200084F8D830A5E7E87810F0D8FF11F036F8A5
:10B530003E469EE784F8D8709BE70222062384F8F3
:10B54000D820194602AA404610F07EF8E0B19DF8D6
:10B550000D309DF80B209B00520002F0020203F018
:10B56000040313439DF8092002F0010213430BD09A
:10B57000012B1DD0022B17D003F00303032B13D094
:10B58000032017F089FB74E701230DF10702404601
:10B590000C2110F059F80028F2D09DF8073013F074
:10B5A0000F03EDD0042B03D0012384F8D93060E7DA
:10B5B000002384F8D9305CE7F01E002040420F00E1
:10B5C0001D530608A8B507080B4B10B5D3F8FC3A75
:10B5D00003440446987D10F081FF60B12E228271F1
:10B5E000621CC2710121FFF719FF20460021BDE84E
:10B5F0001040FEF78EBF10BDF01E00202DE9F8436D
:10B600009DF8208000287AD004468088B0FA80F027
:10B6100020281546C0F11F0271D0DFF804913C4E7E
:10B6200009EB020706EB820297F8B877C2F8C81850
:10B630004FF00042C24005D03649086820EA0200B7
:10B6400008604A6119462046FFF7BAFEA2882368BF
:10B65000B2FA82F4C4F11F0101F0FC0202F180424F
:10B6600002F59C3203F13F4303F57E0301F0030131
:10B67000D2F808C08900C3F387234FF00F0E8B4028
:10B680000EFA01F12CEA0101916091680B4393607D
:10B69000204B4FF000421968E24021EA0201196094
:10B6A00059681D4C21EA02015960D4F8001C11436D
:10B6B000C4F8001C996809EB880821EA0201996026
:10B6C000D96898F8C80721EA02011028D96018D073
:10B6D00000F1804000F59E3003681A4302603E444A
:10B6E00096F8443BAB420ADD0C4B86F8445BD85DD0
:10B6F000C5F387110022BDE8F84368F0D7BEBDE866
:10B70000F883996811439960D9680A43DA60E6E7DB
:10B71000F01E0020003C014000300140B44A0808FF
:10B7200014AE07082DE9F843044690F8210144F2CD
:10B730003B33A4F84C3108B9BDE8F8830509013D55
:10B74000052D00F00F0000F29B804F4F07EB4503E3
:10B75000B3F8D42742FA00F3DB0740F191800123CC
:10B7600003FA00F0013810403D446DF0CDFB474E28
:10B7700095F8E087464A804406F64C3909EBC8053F
:10B780002621AB88E980B3FA83F3202BE260C3F172
:10B790001F02D1D0174406EB82020C34C2F8C8480D
:10B7A0004FF0004232FA03F397F8B84705D0394A10
:10B7B000116821EA03011160536100212846FFF757
:10B7C000FFFDAB8859F83820B3FA83F3C3F11F00AB
:10B7D00000F0FC0101F1804101F59C3102F13F4292
:10B7E00002F57E0200F003008F688000C2F387221A
:10B7F0004FF00F0C82400CFA00F027EA000088603E
:10B80000886802438A60234A234910684FF0004742
:10B8100027FA03F320EA03001060506820EA0300CF
:10B820005060D1F8000C1843C1F8000C906820EA71
:10B8300003009060D06820EA0300D060D1F8082CA3
:10B8400026441A43C1F8082C96F8442BF02A08D84D
:10B85000002B3FF471AF0F490A6813430B60BDE83A
:10B86000F883F02386F8443B0C4B0022185D03213B
:10B8700068F01CFEAB88B3FA83F327FA03F3E7E71B
:10B88000034BE36058E700BF14AE0708F01E00202A
:10B8900085AB0008003C014000300140B44A080874
:10B8A00070B50E4CD4F8246A002E15DD04F58164C1
:10B8B000002503E0B54204F120040DD0237F0135BB
:10B8C000002BF7D0E0680028F4D0217DFFF778FD49
:10B8D000B54204F12004F1D1012070BD0400001034
:10B8E000F8B5037D85691F2B04464DD90168A3F186
:10B8F00020024E6820209040064234D0102393400E
:10B90000C860CB604B68D340DE0700F18380EFF363
:10B910001183502282F312882A6C1168C9075AD405
:10B92000516889B271B9D5E90960864250D0AF69D2
:10B930000744D76073D9301A80B25060AE620021DC
:10B9400085F86410116841F00101DBB2116083F3E6
:10B95000118895F86430002B44D1237D1F2B27D903
:10B960002168A3F120024C6808209040044200D0D6
:10B97000C8604C68042000FA02F2224203D0203B47
:10B9800000FA03F3CB60F8BD0268202016689840E7
:10B99000064219460ED010219940906091601168BE
:10B9A000D940C807B3D5012101FA03F39360AEE78C
:10B9B00022681946106808238B40184200D0936013
:10B9C0001068042303FA01F10142DCD09160F8BD54
:10B9D000012285F86420DBB283F3118895F8643086
:10B9E000002BBAD095F87C30002BB6D195F87100B9
:10B9F00010F074FD2A6E938923F008031B040121C3
:10BA00001B0C938185F87C100028A6D02021FFF71D
:10BA1000D7FCA2E7012303FA02F2CA6077E72E6996
:10BA2000301A80B25060A96289E700BF70B50C4639
:10BA300082B015460646002839D0036803F13F431B
:10BA400003F57E039B0A1B4A134493F88C0768F0A6
:10BA5000B9FEB2880092B2FA82F304F003028DF8C4
:10BA60000420C4F3810230688DF80520C3F11F0360
:10BA7000C4F30012C4F341148DF80740C3F3CC049F
:10BA800000EB840403F007038DF806209B00226A74
:10BA90000F269D4006FA03F322EA03032362226A7B
:10BAA0001543694625625DF009FC02B070BD4FF098
:10BAB000FF33C8E714AE070800B1B7E7704700BF0F
:10BAC0002DE9F043774D05EB001683B0D6F84C3ED8
:10BAD000002B00F0938004464FEA001896F8540EAD
:10BAE00068F070FE96F8543E590903F01F020329CE
:10BAF0004FF0010303FA02F300F09880042900F0EC
:10BB0000858002297DD005EB0803013493F8500E9F
:10BB100010F0E4FCE4B2814610B112238371C471C9
:10BB200005EB080393F8510E10F0D8FC074610B14E
:10BB30001323C471837105EB080393F8520E10F0C0
:10BB4000CDFC064610B11423C471837145444846A8
:10BB500095F8532E01924A21FFF7AEFF019A38461D
:10BB60002A21FFF7A9FF019A0A213046FFF7A4FF17
:10BB7000D5F84C2E4C4B9A425DD04C4B9A424AD051
:10BB80004B4B9A4262D04B4B9A426AD04A4B9A42F4
:10BB900072D04A4B9A427AD049499088B1F84A44C7
:10BBA000B1F84834B1F852542343B1F84C4423431C
:10BBB000B1F84E4420F003002343B1F85044000490
:10BBC000000C2343B1F8544490802B431088234346
:10BBD000B1F85644B1F8581400F4415023430343DC
:10BBE0009BB21380938B23F400631B041B0C938381
:10BBF000118213889BB243F04003138003B0BDE869
:10BC0000F083304A516A0B4353627CE72D4A116935
:10BC10000B43136177E703F50033196A41F4804160
:10BC20001962196A21F480411962B5E7254A116A3F
:10BC30000B43136267E703F58433596A41F480517B
:10BC40005962596A21F480515962A5E703F5FE3320
:10BC5000196A41F400411962196A21F4004119621C
:10BC60009AE703F58233596A41F400515962596ADF
:10BC700021F4005159628FE703F56843596A41F492
:10BC800080115962596A21F48011596284E703F5E1
:10BC90006443596A41F400115962596A21F4001150
:10BCA000596279E7F01E0020003001400038004062
:10BCB000003C00400034014000500140005401406D
:10BCC0008801002000380240431C00F074812DE9F7
:10BCD000F04F00EB8003BE4FDA0087B057F80290B8
:10BCE00081000546019107EBC303B9F1000F05D0B0
:10BCF0009C68002C00F02F81A17911B107B0BDE83C
:10BD0000F08FD3F80CA0BAF1000F00F0A2819AF8DE
:10BD10000630002BF2D11832B818D9F80480BB5085
:10BD2000691CC0E90133C3601523A371C9B216238E
:10BD3000E1718AF807108AF8063099F8180068F05F
:10BD400041FDB8F804302268A18823F440731B0435
:10BD50001B0CA8F80430DAF800301183BAF804207C
:10BD60001A8311212046FFF72BFB11215046FFF7C4
:10BD700027FB09264FF0330B05E0BBF1010B00F068
:10BD8000158116F0AFFB0A20002CF6D02268A1889E
:10BD900013691942F1D05183052016F0A3FB2368E3
:10BDA000A2881A83052016F09DFB013EE2D13326BE
:10BDB00004E0013E00F0308116F094FB0A20002CD4
:10BDC000F7D02368A28819690A42F2D05A83052065
:10BDD00016F088FBBAF1000F00F05D81DAF8003050
:10BDE000BAF804205A83052016F07CFB002C00F0E2
:10BDF00024812368A2881A83052016F073FBDAF8E1
:10BE00000030BAF804201A83052016F06BFB236873
:10BE1000A2881B691A4240F0D580019B2B4407EB96
:10BE2000C3039A7C002A40F0CA801A7C1221204663
:10BE3000FFF7FCFD019B2B4407EBC3039B7C002B0E
:10BE400000F0C4803221BAF1000F07D0019B2B44CF
:10BE500007EBC30350465A7CFFF7E8FD5D4B98455E
:10BE600000F028815C4B984500F02F815B4B984592
:10BE700000F03681019B2B4407EBC3074FF47A7324
:10BE8000BC8A03FB04F4B8F8043023F440731B04A9
:10BE90001B0CA8F80430B8F800309BB243F0010343
:10BEA000A8F80030B8F8045002A85DF051FA25F067
:10BEB0003F0504994A4B2D04A3FB01232D0C45EAB1
:10BEC0009345A8F80450B8F8002022F001021204AB
:10BED000120CA8F80020434A980C9442034600F341
:10BEE00083806200B1FBF2F292B20133042A38BFC0
:10BEF0000422A8F82030A8F81C20B8F800309BB223
:10BF000043F00103A8F80030B8F8003023F481634F
:10BF100023F002031B041B0C4FF4804143F48063A5
:10BF2000A8F80030A8F80810B8F8003023F0800313
:10BF30001B041B0C0022A8F8003099F81A001146C7
:10BF400068F0B4FA002299F81900114607B0BDE86C
:10BF5000F04F68F0ABBAD3F80CA0BAF1000F00F0C4
:10BF6000D4809AF80630002B7FF4C8AE1832BB1884
:10BF7000D9F80480BC50C3E90144DC6016238AF878
:10BF800006306B1C8AF8073099F8180068F01AFC24
:10BF9000B8F80430BAF8042023F440731B041B0CD7
:10BFA000A8F80430DAF800301A83DEE624B9052058
:10BFB00016F098FAF6E67047A1882268EBE61A7C3C
:10BFC000322134E7DAF800301B6926E712213AE71C
:10BFD000F01E00200054004000580040005C00406B
:10BFE00083DE1B43A086010004EB4404B1FBF4F1A3
:10BFF0008AB2C1F30B0109B942F0010250494FF472
:10C00000967300FB03F3A1FB03139B09013342F476
:10C010000042A8F820306EE7002C40F08D8005200B
:10C0200016F060FABAF1000F65D0DAF80030BAF80D
:10C0300004205A83052016F055FA052016F052FA0E
:10C04000DAF80030BAF804201A83052016F04AFA0C
:10C05000F0E61832BB18D9F8048047F802A0C3E90B
:10C0600001AAC3F80CA01523A371431CE37199F82E
:10C07000180068F0A7FBB8F80430A28823F44073D6
:10C080001B041B0CA8F80430236811211A832046D6
:10C09000FFF796F96DE6052016F024FA2368A288CA
:10C0A0001A83052016F01EFA052016F01BFA2368E5
:10C0B0001B69B2E603F5F2331A6A42F400121A62FF
:10C0C0001A6A22F400121A62D4E603F5F0331A6AEF
:10C0D00042F480021A621A6A22F480021A62C9E6E5
:10C0E00003F5EE331A6A42F400021A621A6A22F465
:10C0F00000021A62BEE6052016F0F4F9052016F0DB
:10C10000F1F9052016F0EEF994E61832BB18D9F8CB
:10C11000048047F802A0C3E901AAC3F80CA099F86B
:10C12000180068F04FFBB8F8043023F440731B0488
:10C130001B0CA8F804301CE6A288236846E600BF62
:10C14000D34D62102DE9F843074611F0C5FADFF828
:10C150004C8007EB8709044608EBC90542F20F76CD
:10C1600004E011F0B9FA031BB3420ADC6B7E002B2A
:10C17000F7D108EBC90898F8180080F00100BDE875
:10C18000F883B8F87C3E013338469BB2A8F87C3E71
:10C19000FFF79AFD0020BDE8F88300BFF01E0020E5
:10C1A00010B582B08DF80730431C0CD0022804462D
:10C1B00009DC0DF1070368F077FA20B12046FFF79C
:10C1C000C1FF02B010BD002002B010BD70B500EB81
:10C1D0008003274D05EBC30255F833305C68A38A12
:10C1E00084B09BB20393039B13F4706F1CBF0123B5
:10C1F0001376039B13F4E06F4FEA80060CD1A38AF9
:10C20000304423F4706305EBC0051B041B0C0022B3
:10C21000A3826A7604B070BD238BA38823F4806365
:10C220001B041B0CA380039B9A05E8D423889B0561
:10C23000E5D42388D9050FD52388DA05FCD42388D3
:10C240009BB243F40073238023889B05FCD40190A8
:10C25000FFF73AFD0198D2E723889BB243F40073BD
:10C260002380A38823F440731B041B0CA380C6E720
:10C27000F01E00200020A9E70120A7E70220A5E783
:10C280002DE9F84F2F4F00EB800407EBC404D4F8DE
:10C290000480B8F1000F04D09A46637E03F0FF09D2
:10C2A00023B14FF000094846BDE8F88F0E4693468B
:10C2B000054611F011FA0A9B7600F6B2C4E908337C
:10C2C0000123A67684F81BB084F81D90A37784F828
:10C2D0001CA0637684F81890B8F8042091050646EF
:10C2E00022D4B8F80030DA0512D442F20F7404E018
:10C2F00011F0F2F9831BA3421ADCB8F800309B0559
:10C30000F6D4B8F800309BB243F48073A8F800303C
:10C31000B8F804309BB24FF0010943F44073A8F819
:10C3200004304846BDE8F88F99464846BDE8F88F86
:10C33000B7F87C3E01339BB22846A7F87C3EFFF756
:10C34000C3FCB0E7F01E0020F0B58569296995F8B7
:10C350004C210B78012B97B0044606D0022B01D15B
:10C360000B6A2BB3002017B0F0BD91F90460731C69
:10C37000F8D0022EF6DC04AB297D0093304606236C
:10C38000FFF77EFF0028EDD03046FFF7DBFE0028E8
:10C39000E8D0BDF81010BDF81220BDF8143049BA2D
:10C3A00052BA5BBA0120E1812282638217B0F0BDEC
:10C3B00062F07F028DF80F200DF10F02069201222C
:10C3C000CDE90732CDE90A338DF824308DF83820D5
:10C3D0008DF84C200F9304AA129314930623CDE9F1
:10C3E0000C2300220023CDE9102305F11000EFF308
:10C3F0001186102383F312882B691B6AFBB1089BFB
:10C4000006AF3A461BB1D3691432002BFBD10B6A3D
:10C410006BB1996839B9934209D0196829B15B6841
:10C4200099680029F7D01433F3E7C3E90007F6B29F
:10C4300086F311882A69136A002BFCD1A9E706ABA1
:10C44000F6B20B6286F31188FEF794FAF2E700BFAA
:10C4500070B5016990F84D210B78012B96B0044618
:10C4600006D0022B01D10B6A43B3002016B070BD79
:10C4700091F904506B1CF8D0022DF6DC04AB017D61
:10C48000009328460623FFF7FBFE0028EDD0284640
:10C49000FFF758FE0028E8D0BDF81010BDF81220B4
:10C4A000BDF8143049BA52BA5BBA0120A4F8D010D2
:10C4B000A4F8D220A4F8D43016B070BD62F07F0288
:10C4C0008DF80F200DF10F0206920122CDE90732FF
:10C4D000CDE90A338DF824308DF838208DF84C20C2
:10C4E0000F9304AA129314930623CDE90C23002280
:10C4F0000023CDE910231030EFF31185102383F3CF
:10C50000128823691B6AFBB1089B06AE32461BB139
:10C51000D3691432002BFBD10B6A6BB1996839B91E
:10C52000934209D0196829B15B6899680029F7D04E
:10C530001433F3E7C3E90006EDB285F311882269ED
:10C54000136A002BFCD1A7E706AB0B62EDB285F3B3
:10C550001188FEF70FFAF2E7F8B590F871301C0970
:10C56000013C052C0FD81B4E06EB44020546B2F8E1
:10C57000D40703F00F0340FA03F2D20703D595F86E
:10C580007C70012F01D00120F8BD07FA03F3013BB5
:10C59000184034446CF0B8FC94F8E0270E4C10447A
:10C5A00054F8302004EBC0041069A3881840EBD085
:10C5B000EB6E002285F87C2093F821202046022192
:10C5C000FFF734FA2A6E93899BB243F0080338468A
:10C5D0009381F8BD14AE07083C2A0020094BD3F81C
:10C5E000802ED3F8841E40F22A40002350604B6214
:10C5F0000B889BB243F001030B80136843F00103E7
:10C6000013607047F01E00201D4B1E48196C1E4A17
:10C6100010B441F080510124196404625321FF24B5
:10C62000CA205462506251625B6FDB0085B017D440
:10C6300016480423002102910290029A1A440292A1
:10C64000029A04331C2B1160F5D103910390039BD4
:10C650000393039B0E4A1A6005B05DF8044B7047C4
:10C660000A4B002201920193019B0193019A084B0E
:10C6700012689A42DCD105B05DF8044B704700BFE8
:10C680000038024000000E420028004050280040C0
:10C690003166654210B5174C84B00139002389B268
:10C6A000A042ADF80C30ADF806308DF80E30029196
:10C6B00013D0114B984210D003F5804398420CD010
:10C6C00003F58063984208D003F58063984204D054
:10C6D0000A4BD3F8B0375B0802E0084BD3F8B03709
:10C6E000B3FBF2F201A9013AADF804205DF09AF82B
:10C6F00004B010BD0004014000000140F01E002005
:10C7000030B50446006EA268838923F400531B04ED
:10C710001B0C8381637995B013F0040F4FF0000177
:10C72000019214BF4FF480520A46ADF808201A0354
:10C730001B0203F48063ADF80C302379ADF80E10C2
:10C7400002F40052ADF80A20DA0744BF0422ADF823
:10C750000E209B07ADF8101005D5BDF80E3043F044
:10C760000803ADF80E3001A95DF06EF96279236E11
:10C77000D50700F18B8012F0080F9A8A48D092B248
:10C7800042F008029A829A8992B242F400529A8147
:10C790002279D00732D5E06B002800F08980002391
:10C7A000E26D0893CDE90C33CDE91033CDE91233B6
:10C7B0004FF480750A936369E1680E9506920793BA
:10C7C000626C05924FF480634FF480350B930991AE
:10C7D0000F955CF00BFE05A9E06B5CF09DFEE26B33
:10C7E000216E136843F0010313608B8A9BB243F000
:10C7F00040038B82536822799BB2636591070DD405
:10C80000226E93899BB243F40053938115B030BDDF
:10C8100022F008021204120C9A82B4E7206C00285D
:10C8200052D02369A26D0993A36CCDE90532402350
:10C8300000254FF4803108934FF480630B930F91E0
:10C84000CDE90C55CDE91055CDE9125507950A955E
:10C850000E955CF0CBFD206C05A95CF05DFE236CB1
:10C86000226E586940F080005861186840F0160048
:10C8700018605D60938A9BB243F0800302F10C0163
:10C8800093820B6843F040030B60BAE71E498B426A
:10C8900024D0A1F54C418B421ED001F580618B4222
:10C8A0001ED102200121FDF734FE6279236E62E77A
:10C8B0004FF6DF711980D96841F02001D960D9683D
:10C8C00041F01001D96099E7226ED36843F08003EC
:10C8D00002F10C01D360D4E70120E3E70020E1E797
:10C8E00001F580618B420AD001F580618B4208D04E
:10C8F00001F544418B427FF43EAF0520D2E703208F
:10C90000D0E70420CEE700BF001001402DE9F84F2A
:10C910004D4C04EB8004D4F82C4A002C7DD0E56EFD
:10C92000002D76D01F46EB6A6361AB6AA3616B8E04
:10C93000E3602B8E23616B682366444B2360444B7A
:10C94000A160A36606462046904610F08BF994F845
:10C9500071000FF0C3FD824695F8200094F870B086
:10C96000A14600284ED102213A0784F87C1036D423
:10C9700018F0020F10D0BAF1000F0DD00B238AF877
:10C980000630731C8AF807303B0648D495F82120FE
:10C9900050462221FFF74AF818F0010F04D1E26B4C
:10C9A0009AB14846BDE8F88F58460FF097FD002829
:10C9B000F5D00C220136C671827195F82120222112
:10C9C000FFF734F8E26B002AEBD195F8241095F8C4
:10C9D0002200890967F06AFD4846BDE8F88F0136F4
:10C9E000F6B2BAF1000FDAD00B2317F0500F8AF825
:10C9F00007608AF8063008D095F821205046FFF7E6
:10CA000015F8CCE767F0DEFEADE795F8212012219E
:10CA1000F4E7A9464846BDE8F88FA146C1E794F877
:10CA200071000FF05BFD226E938923F008031B0455
:10CA300001211B0C938184F87C100028ACD02021AC
:10CA4000FEF7BEFCA8E700BF04000010FCB5070815
:10CA500059C50008BFF34F8F0549064BCA6802F459
:10CA6000E0621343CB60BFF34F8F00BFFDE700BF11
:10CA700000ED00E00400FA0508B572B6FFF7EAFF22
:10CA800000B583B00D49002200920091009B0C3349
:10CA90000093009B1B68012B02D003B05DF804FBE0
:10CAA00001920191019B06490C330193019B1A608D
:10CAB0000B6883F308884B689847FEE750280040CE
:10CAC0000000FF1F38B5FFF79FFDFFF7D9FF0120DA
:10CAD0005CF0B4FD714A936823F00303936093689C
:10CAE00013F00C0FFBD113686C49002842D143F0BE
:10CAF0000103136041F288330A6895075DD4013B56
:10CB0000FAD1674C674D654B674AEA60596F674ACF
:10CB1000C4F8A01EAA60596B654821F080015963D2
:10CB2000596F41F080715967196B41F4CE01196357
:10CB30005A6B5A639A6B9A631A6C02431A64596C63
:10CB40005C4A0A435A6410F07FFDD4F8B0375A4A61
:10CB5000A2FB03239B09013BB3F1807F09D24FF075
:10CB6000E022F02053610021072385F82300916122
:10CB7000136138BD43F4803313600A68940341F2B3
:10CB8000883304D4013BBCD00A689403FAD5444CE2
:10CB90004A4A4B4BB0FBF3F3B0FBF2F0B3EB400F60
:10CBA00018BF18464FF48002B3FBF0F3C4F89C2E74
:10CBB000C4F8880EC4F88C3E09E0394C00210822E4
:10CBC0000223C4F89C1EC4F8882EC4F88C3E0220B0
:10CBD0005CF034FD03280FD83A4BD4F88C1E03EBDD
:10CBE000C0008588C2884388C4F8945EB3FBF1F323
:10CBF000C4F8982EC4F8903E284B33491A6C42F082
:10CC000080521A640A6842F440420A609A689A6044
:10CC10009A6842F400429A609A6842F4A0529A607C
:10CC2000D4F89C0ED4F8882ED4F8901E024342EA21
:10CC30008112D4F8941ED4F8980E490842EA006292
:10CC4000013942EA01425A601A6842F080721A6061
:10CC50001A689201FCD51D4A40F20571116099686D
:10CC600021F003019960996841F00201A2F5806208
:10CC70009960936803F00C03082BFAD1D4F88C0E5A
:10CC80001349D823B3FBF0F39B0143F00053012079
:10CC9000C2F884308866FBF799FE33E7003802401B
:10CCA000F01E002000ED00E00005FA050000002065
:10CCB000FFC9FE36335F0700D34D621080841E002B
:10CCC00040420F002CB6070800700040003C0240B4
:10CCD0000000474210B584B000230446ADF80C3084
:10CCE0000068ADF806308DF80E3003F1804301394D
:10CCF00003F5823389B29842029114D0A3F5806380
:10CD0000984210D003F5804398420CD003F580631D
:10CD1000984208D003F58063984204D0204BD3F8A2
:10CD2000B0375B0802E01E4BD3F8B037B3FBF2F329
:10CD300001A9013BADF804305CF074FD2168194A8B
:10CD40000B8819489BB243F001030B80002301E0DC
:10CD500050F83320914208D001330E2BF8D1002037
:10CD600004B0BDE81040FBF78FBD104A02EBC303CF
:10CD700093F83D482046FBF787FD1B2C05D1192071
:10CD800004B0BDE81040FBF77FBD2E2C08BF2C205F
:10CD900004D104B0BDE81040FBF776BD04B010BD6F
:10CDA000F01E0020000001404CB6070814AE070832
:10CDB00010B5EFF3118E502383F3128803681BB371
:10CDC00084464CF8243F043300F1140252F8044B1B
:10CDD0001CB11C6052F8043C04339445F6D1002287
:10CDE0001A605FFA8EF383F31188436A2BB18B8943
:10CDF0009BB243F001038B8110BD8B8923F00103AB
:10CE00001B041B0C8B8110BD00F1240C6346DBE777
:10CE100070B50568AB0AA3F58013522B25D81F4CBB
:10CE2000234493F8F4330D2B1FD840798608E9B1D9
:10CE300003EB830C03EB4C0CB5F80CE08408B44412
:10CE40000220174EA04040EA0E0006EB8C0480B290
:10CE5000C4F84815C4F85825A881124A2C20294640
:10CE600000FB0320BDE87040A2E770BDAC8903EB76
:10CE7000830C304603EB4C0C4FF0020EB444A4B2CA
:10CE8000074E0EFA00F024EA0000A88106EB8C00A1
:10CE9000C0F84815C0F85825DFE700BF14AE0708F2
:10CEA000F01E00203424002001490248FCF7AAB8F3
:10CEB000342400200000014010B5064C064804F25E
:10CEC0004451FCF79FF804F5DA610448BDE81040CE
:10CED000FCF798B8F01E002000000140004401401B
:10CEE00002494FF08040FCF78DB800BF602400205D
:10CEF00001490248FCF786B88C2400200004004059
:10CF000001490248FCF77EB8B82400200008004020
:10CF100001490248FCF776B8E4240020000C0040E8
:10CF200001490248FCF76EB8682500200004014062
:10CF300010B5064C064804F5CF61FCF763F804F21F
:10CF400054710448BDE81040FCF75CB8F01E0020A6
:10CF500000040140001C004001490248FCF752B89F
:10CF6000942500200040014001490248FCF74AB8DE
:10CF7000EC2500200048014001490248FCF742B876
:10CF8000182600200018004001490248FCF73AB872
:10CF90007026002000200040F8B5164D1648174FA7
:10CFA00000214FF41A726DF0D0FE05F688064FF09E
:10CFB0008041A5F18C043A46002301E054F8332067
:10CFC00091420BD001330E2BF8D100201C3567F0B5
:10CFD000F9FBB5420CD055F81C1CECE7084A02EBF3
:10CFE000C3031C3593F83C0867F0ECFBB542F2D163
:10CFF000F8BD00BFD8B60708342400200000014067
:10D0000014AE070810B50C2937D8DFE801F09736C1
:10D01000363666363636373636360700038C548851
:10D02000B2F80CE023F480531B041B0C0384038C24
:10D03000B0F804C0818B21F4E6414EEA040E0904E5
:10D04000148823F40053090C41EA04211B04754C95
:10D050001B0C43EA0E33A0421FFA8CFC9BB289B230
:10D0600000F0AE8004F58064A04200F0A9809268D0
:10D07000A0F804C081830264038410BD038CB2F85D
:10D080000CC0548823F480731B041B0C0384038C92
:10D09000B0F804E0818B23F400731B044CEA040C09
:10D0A00021F073011B0C43EA0C230904B2F800C001
:10D0B000090C41EA0C0C5B4988421FFA8EFE9BB2B8
:10D0C00068D001F58061884264D09268A0F804E0DD
:10D0D000A0F81CC0C263038410BD038CB2F80CC05E
:10D0E000548823F010031B041B0C0384038CB0F83A
:10D0F00004E0018B23F020031B044CEA040C21F410
:10D10000E6411B0C43EA0C130904B2F800C0090CF9
:10D1100041EA0C211FFA81FC424988421FFA8EFE27
:10D120009BB269D001F58061884265D09268A0F811
:10D1300004E0A0F818C08263038410BD038C5488F7
:10D14000B2F80CE023F001031B041B0C0384038CD6
:10D15000B0F804C0018B21F073014EEA040E0904FB
:10D16000148823F00203090C1B0421432D4C1B0CD3
:10D1700043EA0E03A0421FFA8CFC9BB228D004F5B0
:10D180008064A04224D09268A0F804C00183426366
:10D19000038410BDD189548A23F4006343EA01213A
:10D1A000138A2EF4405E23434EEA031E94884FF602
:10D1B000FF330B4043EA04231FFA8EFE9BB284E741
:10D1C000148A2CF4804C4CEA841C1FFA8CFC4EE729
:10D1D000D489B2F810E023F008032343548A2CF4D6
:10D1E000407C4EEA040E948823F004034CEA0E0CB3
:10D1F0001FFA8CFC2343C6E7D189548A23F08003AD
:10D2000043EA0111138A2EF4406E23434EEA830E43
:10D2100094884FF6BF730B4043EA04131FFA8EFE47
:10D220009BB283E7000001402DE9F04FA24BDFF8ED
:10D23000A49293F8B63EA14EA14F8FB0CDE901392B
:10D24000013BDBB200930025DFF88CB2DFF88CA243
:10D250005B46D3469A464FEA9A23A3F58013522B96
:10D260004CD8334493F8F4330D2B47D8FC56019B2C
:10D27000012B40F00181012C35D14FF000084146CF
:10D28000204615F0A9FE15F035FF037813B1542B95
:10D2900040F0F98008F104081FFA88F8B8F1100F7F
:10D2A000EDD14FF0000E8DB3494600200CE0334421
:10D2B00093F8F4330D2B0ED8FB56A3420ED0013059
:10D2C000A84201F580711EDA8A6813689B0AA3F5EB
:10D2D0008013522BEBD90023A342F0D153799BF852
:10D2E00005209A42EBD1774B5B454BD05BF81CAFE6
:10D2F0004FEA9A23A3F58013522BB2D9009B012B3E
:10D30000F1D90024B9E7BEF1000FECD15846FBF784
:10D3100039F8C3B2022B9BF805C000F23483431CDA
:10D320005BB203EB43034FEA830E644B664903F59C
:10D33000727004E0984200F0268353F82C1F514588
:10D34000F8D11A796245F5D153F80E40002CF1D08E
:10D350005E4800234268A24203F1010300F0898085
:10D36000102B00F12400F5D14FF0FF33584A03EBA6
:10D37000C30302EB830393F82432002BB3D1029B47
:10D38000C3F808B0029B013503F58073042D0293A6
:10D390007FF45AAFDFF848B10BF59E730027ABF569
:10D3A000816A9846DAF8243ABB425FDDDBF80C501C
:10D3B000002D5BD09BF81030A88802932B68DAF818
:10D3C0000460019303F13F41B0FA80F301F57E015F
:10D3D0000393002EC3F11F034FEA9121009340F302
:10D3E0008480002302E00133B3427BD01C0259F851
:10D3F00004208A42F7D14C440099029B8BF81030EC
:10D4000003260137CBF80410CBF80C50CBF81840AA
:10D41000AE71EF71636CE26C0D4649008E401E43A5
:10D42000012303FA01F111439AF800206664E164D4
:10D430007AB303FA05F11A46236D0B432365019B6A
:10D4400089B21883D4F8A000FAF7D8FF2046FBF77A
:10D450002BF90123082F8BF81C308BF81D3088F82E
:10D4600011300BF1200B08F118089BD10FB0BDE86B
:10D47000F08FDBB2013B79E7022B7FF4FEAE082C84
:10D480003FF4FBAE2FE74FF0010E002D7FF40CAF01
:10D4900029E70399C1F12F05009903FA05F58B409F
:10D4A00099B2236D2B432365019B5883D4F8A000C8
:10D4B000FAF7A4FFCAE700BFF01E002014AE070869
:10D4C000A44A080824C00708000001409003002077
:10D4D000880100200C0000100004014044BF070830
:10D4E0000C040010032B00F31F820AEB0623320208
:10D4F00018690492002800F03F8299600131CAB295
:10D5000083F805210692542283F80421013602682B
:10D5100005924479CAF80460FAF734FF934AC3B21B
:10D52000022B92F8CDEE844600F22D82461C76B294
:10D5300006EB46068E498F48059AB600002305E0A3
:10D540000133172B00F01F8251F82C0F8242F7D1C4
:10D550000879A042F4D188590028F1D02C2101FB90
:10D5600003F30CEB4C0C03EB8C0C814B63441969FB
:10D57000049B5344C3E906017F4B00211E461C4611
:10D580006368984216D00131102904F12404F7D1C0
:10D590007A4B93F80022002A00F0E7817849794A13
:10D5A000794BCAF8681ACAF8602ACAF8703A0FB0FC
:10D5B000BDE8F08F01F1010C5FFA8CFC6F4B079610
:10D5C0000CF1FF3C0CEBCC0C03EB8C0C9CF82432E4
:10D5D0000593002BE2D1049E069B8CF82532F311B3
:10D5E00003EB262000EB001368488C2400EB83003B
:10D5F0003112674B04FB01F103EB41010AEB060317
:10D60000C3E93C145421019E8CF824123321C3F841
:10D61000AC10DE60C3F8A8005E4B04999A4209EB97
:10D62000010400F07681534B9A4200F0728103F5B9
:10D6300080439A4200F06D8103F580639A4200F0C6
:10D64000688103F580639A4200F06381474BD3F809
:10D65000B007BEF1060F4FEA500000F061814E4B5B
:10D660004E49BEF1070F18BF9C464D4B08BF8C4674
:10D670004C4918BF1946B0FBF1F1B0FBFCFC104659
:10D68000049A01390AEB020389B20CF1FF3CA3F8BA
:10D69000B0C0A3F868104FF000060193A165002305
:10D6A00002F154014944A4F85C6063655CF0BAF887
:10D6B000019B3D4A1B690193186803889BB243F0A4
:10D6C00080030380038809920A210B914FF4807232
:10D6D000022123F00103CDE90C121B04ADF82860F0
:10D6E0001B0C019E0380717909AAFFF78BFC30792E
:10D6F000002840F02281049B079E0AEB03020023CE
:10D700001069D2F818C001680A8892B242F001028A
:10D710000A807268944503F1010300F00A81102B1E
:10D7200006F12406F5D14FF0FF33144A1F4E03EBE8
:10D73000C30302EB83031E4AD3F80832B3420CBF83
:10D740004FF400134FF48003166B33431363427995
:10D7500018480C2A9BBF184B03EB42030026B3F872
:10D760003461049B53449E8200232EE0F01E00206F
:10D7700014AE07080000014090030020880100203B
:10D780005D8801085988010865880108C02D0020BE
:10D79000F03000200004014044950800105522009C
:10D7A000D0DD060040771B006000010000600240F1
:10D7B00000380240140600100CBF0708914200F028
:10D7C000E0800133042B00F0E18050F83320002A80
:10D7D000F4D1DAF80C260132CAF80C260AEBC3029F
:10D7E000DB00C2F8101603446A499A88059816436C
:10D7F0009E80049B0AEB030690222346FDF7E4FC7F
:10D80000B0690268002342F010020260C4E92533C7
:10D81000A367C4F88830C4F89C30F26962664FF49C
:10D820008062E26704214FF40032C4E923214022E0
:10D830002267D6F8AC206267F268049B1832A266B1
:10D840004FF48052C4F88020D6F8A820E26603F195
:10D8500064014FF480424944C4F884205BF05CFECC
:10D86000B069049BD0F800E0C4F81CE0D0F814E0E4
:10D87000C4F820E0D0F804E0C4F824E003F1AC01DF
:10D88000D0F808E0C4F828E00023D0F80CE0C4F891
:10D890002CE0C4E93733C4F8B830C4F8C030C4F859
:10D8A000D030C4F8E430F369C4F8AC304FF480638E
:10D8B000C4F8C4304FF4403C0423C4E935C3D6F85F
:10D8C000F430C4F8BC30F3681033C4F8B0304FF40F
:10D8D0000063C4F8C830D6F8F030C4F8B4304FF460
:10D8E0008042C4F8CC2049445BF016FEB369A88896
:10D8F0001A6822635A6962635A68A2639A68E2638B
:10D90000DA6822641A6842F010021A602B680193E8
:10D9100072E5214BBEF1060FD3F8B0077FF49FAE3E
:10D92000DFF87CC01D49A6E61B4A032382F8CC3EE3
:10D9300034E6DBB20593013BF7E60EF0CFFD06902F
:10D9400038B1019B0221DA79FEF770F8069B542268
